{
  "_format": "hh-sol-artifact-1",
  "contractName": "HaloNFT_721",
  "sourceName": "contracts/HaloNFT_721.sol",
  "abi": [
    {
      "inputs": [],
      "stateMutability": "nonpayable",
      "type": "constructor"
    },
    {
      "anonymous": false,
      "inputs": [
        {
          "indexed": true,
          "internalType": "address",
          "name": "owner",
          "type": "address"
        },
        {
          "indexed": true,
          "internalType": "address",
          "name": "approved",
          "type": "address"
        },
        {
          "indexed": true,
          "internalType": "uint256",
          "name": "tokenId",
          "type": "uint256"
        }
      ],
      "name": "Approval",
      "type": "event"
    },
    {
      "anonymous": false,
      "inputs": [
        {
          "indexed": true,
          "internalType": "address",
          "name": "owner",
          "type": "address"
        },
        {
          "indexed": true,
          "internalType": "address",
          "name": "operator",
          "type": "address"
        },
        {
          "indexed": false,
          "internalType": "bool",
          "name": "approved",
          "type": "bool"
        }
      ],
      "name": "ApprovalForAll",
      "type": "event"
    },
    {
      "anonymous": false,
      "inputs": [
        {
          "indexed": true,
          "internalType": "address",
          "name": "previousOwner",
          "type": "address"
        },
        {
          "indexed": true,
          "internalType": "address",
          "name": "newOwner",
          "type": "address"
        }
      ],
      "name": "OwnershipTransferred",
      "type": "event"
    },
    {
      "anonymous": false,
      "inputs": [
        {
          "indexed": true,
          "internalType": "address",
          "name": "from",
          "type": "address"
        },
        {
          "indexed": true,
          "internalType": "address",
          "name": "to",
          "type": "address"
        },
        {
          "indexed": true,
          "internalType": "uint256",
          "name": "tokenId",
          "type": "uint256"
        }
      ],
      "name": "Transfer",
      "type": "event"
    },
    {
      "inputs": [
        {
          "internalType": "address",
          "name": "to",
          "type": "address"
        },
        {
          "internalType": "uint256",
          "name": "tokenId",
          "type": "uint256"
        }
      ],
      "name": "approve",
      "outputs": [],
      "stateMutability": "nonpayable",
      "type": "function"
    },
    {
      "inputs": [
        {
          "internalType": "address",
          "name": "owner",
          "type": "address"
        }
      ],
      "name": "balanceOf",
      "outputs": [
        {
          "internalType": "uint256",
          "name": "",
          "type": "uint256"
        }
      ],
      "stateMutability": "view",
      "type": "function"
    },
    {
      "inputs": [
        {
          "internalType": "uint256",
          "name": "tokenId",
          "type": "uint256"
        }
      ],
      "name": "getApproved",
      "outputs": [
        {
          "internalType": "address",
          "name": "",
          "type": "address"
        }
      ],
      "stateMutability": "view",
      "type": "function"
    },
    {
      "inputs": [
        {
          "internalType": "address",
          "name": "owner",
          "type": "address"
        },
        {
          "internalType": "address",
          "name": "operator",
          "type": "address"
        }
      ],
      "name": "isApprovedForAll",
      "outputs": [
        {
          "internalType": "bool",
          "name": "",
          "type": "bool"
        }
      ],
      "stateMutability": "view",
      "type": "function"
    },
    {
      "inputs": [],
      "name": "name",
      "outputs": [
        {
          "internalType": "string",
          "name": "",
          "type": "string"
        }
      ],
      "stateMutability": "view",
      "type": "function"
    },
    {
      "inputs": [],
      "name": "owner",
      "outputs": [
        {
          "internalType": "address",
          "name": "",
          "type": "address"
        }
      ],
      "stateMutability": "view",
      "type": "function"
    },
    {
      "inputs": [
        {
          "internalType": "uint256",
          "name": "tokenId",
          "type": "uint256"
        }
      ],
      "name": "ownerOf",
      "outputs": [
        {
          "internalType": "address",
          "name": "",
          "type": "address"
        }
      ],
      "stateMutability": "view",
      "type": "function"
    },
    {
      "inputs": [],
      "name": "renounceOwnership",
      "outputs": [],
      "stateMutability": "nonpayable",
      "type": "function"
    },
    {
      "inputs": [
        {
          "internalType": "address",
          "name": "to",
          "type": "address"
        },
        {
          "internalType": "string",
          "name": "uri",
          "type": "string"
        }
      ],
      "name": "safeMint",
      "outputs": [],
      "stateMutability": "nonpayable",
      "type": "function"
    },
    {
      "inputs": [
        {
          "internalType": "address",
          "name": "from",
          "type": "address"
        },
        {
          "internalType": "address",
          "name": "to",
          "type": "address"
        },
        {
          "internalType": "uint256",
          "name": "tokenId",
          "type": "uint256"
        }
      ],
      "name": "safeTransferFrom",
      "outputs": [],
      "stateMutability": "nonpayable",
      "type": "function"
    },
    {
      "inputs": [
        {
          "internalType": "address",
          "name": "from",
          "type": "address"
        },
        {
          "internalType": "address",
          "name": "to",
          "type": "address"
        },
        {
          "internalType": "uint256",
          "name": "tokenId",
          "type": "uint256"
        },
        {
          "internalType": "bytes",
          "name": "data",
          "type": "bytes"
        }
      ],
      "name": "safeTransferFrom",
      "outputs": [],
      "stateMutability": "nonpayable",
      "type": "function"
    },
    {
      "inputs": [
        {
          "internalType": "address",
          "name": "operator",
          "type": "address"
        },
        {
          "internalType": "bool",
          "name": "approved",
          "type": "bool"
        }
      ],
      "name": "setApprovalForAll",
      "outputs": [],
      "stateMutability": "nonpayable",
      "type": "function"
    },
    {
      "inputs": [
        {
          "internalType": "bytes4",
          "name": "interfaceId",
          "type": "bytes4"
        }
      ],
      "name": "supportsInterface",
      "outputs": [
        {
          "internalType": "bool",
          "name": "",
          "type": "bool"
        }
      ],
      "stateMutability": "view",
      "type": "function"
    },
    {
      "inputs": [],
      "name": "symbol",
      "outputs": [
        {
          "internalType": "string",
          "name": "",
          "type": "string"
        }
      ],
      "stateMutability": "view",
      "type": "function"
    },
    {
      "inputs": [
        {
          "internalType": "uint256",
          "name": "index",
          "type": "uint256"
        }
      ],
      "name": "tokenByIndex",
      "outputs": [
        {
          "internalType": "uint256",
          "name": "",
          "type": "uint256"
        }
      ],
      "stateMutability": "view",
      "type": "function"
    },
    {
      "inputs": [
        {
          "internalType": "address",
          "name": "owner",
          "type": "address"
        },
        {
          "internalType": "uint256",
          "name": "index",
          "type": "uint256"
        }
      ],
      "name": "tokenOfOwnerByIndex",
      "outputs": [
        {
          "internalType": "uint256",
          "name": "",
          "type": "uint256"
        }
      ],
      "stateMutability": "view",
      "type": "function"
    },
    {
      "inputs": [
        {
          "internalType": "uint256",
          "name": "tokenId",
          "type": "uint256"
        }
      ],
      "name": "tokenURI",
      "outputs": [
        {
          "internalType": "string",
          "name": "",
          "type": "string"
        }
      ],
      "stateMutability": "view",
      "type": "function"
    },
    {
      "inputs": [],
      "name": "totalSupply",
      "outputs": [
        {
          "internalType": "uint256",
          "name": "",
          "type": "uint256"
        }
      ],
      "stateMutability": "view",
      "type": "function"
    },
    {
      "inputs": [
        {
          "internalType": "address",
          "name": "from",
          "type": "address"
        },
        {
          "internalType": "address",
          "name": "to",
          "type": "address"
        },
        {
          "internalType": "uint256",
          "name": "tokenId",
          "type": "uint256"
        }
      ],
      "name": "transferFrom",
      "outputs": [],
      "stateMutability": "nonpayable",
      "type": "function"
    },
    {
      "inputs": [
        {
          "internalType": "address",
          "name": "newOwner",
          "type": "address"
        }
      ],
      "name": "transferOwnership",
      "outputs": [],
      "stateMutability": "nonpayable",
      "type": "function"
    }
  ],
  "bytecode": "0x60806040523480156200001157600080fd5b50604080518082018252600c81526b48616c6f20576561706f6e7360a01b60208083019182528351808501909452600484526348414c4f60e01b9084015281519192916200006291600091620000f1565b50805162000078906001906020840190620000f1565b505050620000956200008f6200009b60201b60201c565b6200009f565b620001d4565b3390565b600b80546001600160a01b038381166001600160a01b0319831681179093556040519116919082907f8be0079c531659141344cd1fd0a4f28419497f9722a3daafe3b4186f6b6457e090600090a35050565b828054620000ff9062000197565b90600052602060002090601f0160209004810192826200012357600085556200016e565b82601f106200013e57805160ff19168380011785556200016e565b828001600101855582156200016e579182015b828111156200016e57825182559160200191906001019062000151565b506200017c92915062000180565b5090565b5b808211156200017c576000815560010162000181565b600181811c90821680620001ac57607f821691505b60208210811415620001ce57634e487b7160e01b600052602260045260246000fd5b50919050565b611bbc80620001e46000396000f3fe608060405234801561001057600080fd5b506004361061012c5760003560e01c806370a08231116100ad578063b88d4fde11610071578063b88d4fde14610266578063c87b56dd14610279578063d204c45e1461028c578063e985e9c51461029f578063f2fde38b146102db57600080fd5b806370a082311461021f578063715018a6146102325780638da5cb5b1461023a57806395d89b411461024b578063a22cb4651461025357600080fd5b806323b872dd116100f457806323b872dd146101c05780632f745c59146101d357806342842e0e146101e65780634f6ccce7146101f95780636352211e1461020c57600080fd5b806301ffc9a71461013157806306fdde0314610159578063081812fc1461016e578063095ea7b31461019957806318160ddd146101ae575b600080fd5b61014461013f3660046118ba565b6102ee565b60405190151581526020015b60405180910390f35b6101616102ff565b60405161015091906119a2565b61018161017c3660046118f2565b610391565b6040516001600160a01b039091168152602001610150565b6101ac6101a7366004611891565b6103b8565b005b6008545b604051908152602001610150565b6101ac6101ce366004611744565b6104d3565b6101b26101e1366004611891565b610504565b6101ac6101f4366004611744565b61059a565b6101b26102073660046118f2565b6105b5565b61018161021a3660046118f2565b610656565b6101b261022d3660046116f8565b6106b6565b6101ac61073c565b600b546001600160a01b0316610181565b610161610750565b6101ac6102613660046117f8565b61075f565b6101ac61027436600461177f565b61076e565b6101616102873660046118f2565b6107a6565b6101ac61029a366004611832565b6107b1565b6101446102ad366004611712565b6001600160a01b03918216600090815260056020908152604080832093909416825291909152205460ff1690565b6101ac6102e93660046116f8565b6107e8565b60006102f982610861565b92915050565b60606000805461030e90611ac4565b80601f016020809104026020016040519081016040528092919081815260200182805461033a90611ac4565b80156103875780601f1061035c57610100808354040283529160200191610387565b820191906000526020600020905b81548152906001019060200180831161036a57829003601f168201915b5050505050905090565b600061039c82610886565b506000908152600460205260409020546001600160a01b031690565b60006103c382610656565b9050806001600160a01b0316836001600160a01b031614156104365760405162461bcd60e51b815260206004820152602160248201527f4552433732313a20617070726f76616c20746f2063757272656e74206f776e656044820152603960f91b60648201526084015b60405180910390fd5b336001600160a01b0382161480610452575061045281336102ad565b6104c45760405162461bcd60e51b815260206004820152603e60248201527f4552433732313a20617070726f76652063616c6c6572206973206e6f7420746f60448201527f6b656e206f776e6572206e6f7220617070726f76656420666f7220616c6c0000606482015260840161042d565b6104ce83836108e5565b505050565b6104dd3382610953565b6104f95760405162461bcd60e51b815260040161042d90611a07565b6104ce8383836109d2565b600061050f836106b6565b82106105715760405162461bcd60e51b815260206004820152602b60248201527f455243373231456e756d657261626c653a206f776e657220696e646578206f7560448201526a74206f6620626f756e647360a81b606482015260840161042d565b506001600160a01b03919091166000908152600660209081526040808320938352929052205490565b6104ce8383836040518060200160405280600081525061076e565b60006105c060085490565b82106106235760405162461bcd60e51b815260206004820152602c60248201527f455243373231456e756d657261626c653a20676c6f62616c20696e646578206f60448201526b7574206f6620626f756e647360a01b606482015260840161042d565b6008828154811061064457634e487b7160e01b600052603260045260246000fd5b90600052602060002001549050919050565b6000818152600260205260408120546001600160a01b0316806102f95760405162461bcd60e51b8152602060048201526018602482015277115490cdcc8c4e881a5b9d985b1a59081d1bdad95b88125160421b604482015260640161042d565b60006001600160a01b0382166107205760405162461bcd60e51b815260206004820152602960248201527f4552433732313a2061646472657373207a65726f206973206e6f7420612076616044820152683634b21037bbb732b960b91b606482015260840161042d565b506001600160a01b031660009081526003602052604090205490565b610744610b79565b61074e6000610bd3565b565b60606001805461030e90611ac4565b61076a338383610c25565b5050565b6107783383610953565b6107945760405162461bcd60e51b815260040161042d90611a07565b6107a084848484610cf4565b50505050565b60606102f982610d27565b6107b9610b79565b60006107c4600c5490565b90506107d08382610e30565b6107da8183610e4a565b6104ce600c80546001019055565b6107f0610b79565b6001600160a01b0381166108555760405162461bcd60e51b815260206004820152602660248201527f4f776e61626c653a206e6577206f776e657220697320746865207a65726f206160448201526564647265737360d01b606482015260840161042d565b61085e81610bd3565b50565b60006001600160e01b0319821663780e9d6360e01b14806102f957506102f982610ee4565b6000818152600260205260409020546001600160a01b031661085e5760405162461bcd60e51b8152602060048201526018602482015277115490cdcc8c4e881a5b9d985b1a59081d1bdad95b88125160421b604482015260640161042d565b600081815260046020526040902080546001600160a01b0319166001600160a01b038416908117909155819061091a82610656565b6001600160a01b03167f8c5be1e5ebec7d5bd14f71427d1e84f3dd0314c0f7b2291e5b200ac8c7c3b92560405160405180910390a45050565b60008061095f83610656565b9050806001600160a01b0316846001600160a01b031614806109a657506001600160a01b0380821660009081526005602090815260408083209388168352929052205460ff165b806109ca5750836001600160a01b03166109bf84610391565b6001600160a01b0316145b949350505050565b826001600160a01b03166109e582610656565b6001600160a01b031614610a495760405162461bcd60e51b815260206004820152602560248201527f4552433732313a207472616e736665722066726f6d20696e636f72726563742060448201526437bbb732b960d91b606482015260840161042d565b6001600160a01b038216610aab5760405162461bcd60e51b8152602060048201526024808201527f4552433732313a207472616e7366657220746f20746865207a65726f206164646044820152637265737360e01b606482015260840161042d565b610ab6838383610f34565b610ac16000826108e5565b6001600160a01b0383166000908152600360205260408120805460019290610aea908490611a81565b90915550506001600160a01b0382166000908152600360205260408120805460019290610b18908490611a55565b909155505060008181526002602052604080822080546001600160a01b0319166001600160a01b0386811691821790925591518493918716917fddf252ad1be2c89b69c2b068fc378daa952ba7f163c4a11628f55a4df523b3ef91a4505050565b600b546001600160a01b0316331461074e5760405162461bcd60e51b815260206004820181905260248201527f4f776e61626c653a2063616c6c6572206973206e6f7420746865206f776e6572604482015260640161042d565b600b80546001600160a01b038381166001600160a01b0319831681179093556040519116919082907f8be0079c531659141344cd1fd0a4f28419497f9722a3daafe3b4186f6b6457e090600090a35050565b816001600160a01b0316836001600160a01b03161415610c875760405162461bcd60e51b815260206004820152601960248201527f4552433732313a20617070726f766520746f2063616c6c657200000000000000604482015260640161042d565b6001600160a01b03838116600081815260056020908152604080832094871680845294825291829020805460ff191686151590811790915591519182527f17307eab39ab6107e8899845ad3d59bd9653f200f220920489ca2b5937696c31910160405180910390a3505050565b610cff8484846109d2565b610d0b84848484610f3f565b6107a05760405162461bcd60e51b815260040161042d906119b5565b6060610d3282610886565b6000828152600a602052604081208054610d4b90611ac4565b80601f0160208091040260200160405190810160405280929190818152602001828054610d7790611ac4565b8015610dc45780601f10610d9957610100808354040283529160200191610dc4565b820191906000526020600020905b815481529060010190602001808311610da757829003601f168201915b505050505090506000610de260408051602081019091526000815290565b9050805160001415610df5575092915050565b815115610e27578082604051602001610e0f929190611936565b60405160208183030381529060405292505050919050565b6109ca8461104c565b61076a8282604051806020016040528060008152506110c0565b6000828152600260205260409020546001600160a01b0316610ec55760405162461bcd60e51b815260206004820152602e60248201527f45524337323155524953746f726167653a2055524920736574206f66206e6f6e60448201526d32bc34b9ba32b73a103a37b5b2b760911b606482015260840161042d565b6000828152600a6020908152604090912082516104ce928401906115cd565b60006001600160e01b031982166380ac58cd60e01b1480610f1557506001600160e01b03198216635b5e139f60e01b145b806102f957506301ffc9a760e01b6001600160e01b03198316146102f9565b6104ce8383836110f3565b60006001600160a01b0384163b1561104157604051630a85bd0160e11b81526001600160a01b0385169063150b7a0290610f83903390899088908890600401611965565b602060405180830381600087803b158015610f9d57600080fd5b505af1925050508015610fcd575060408051601f3d908101601f19168201909252610fca918101906118d6565b60015b611027573d808015610ffb576040519150601f19603f3d011682016040523d82523d6000602084013e611000565b606091505b50805161101f5760405162461bcd60e51b815260040161042d906119b5565b805181602001fd5b6001600160e01b031916630a85bd0160e11b1490506109ca565b506001949350505050565b606061105782610886565b600061106e60408051602081019091526000815290565b9050600081511161108e57604051806020016040528060008152506110b9565b80611098846111ab565b6040516020016110a9929190611936565b6040516020818303038152906040525b9392505050565b6110ca83836112c5565b6110d76000848484610f3f565b6104ce5760405162461bcd60e51b815260040161042d906119b5565b6001600160a01b03831661114e5761114981600880546000838152600960205260408120829055600182018355919091527ff3f7a9fe364faab93b216da50a3214154f22a0a2b415b23a84c8169e8b636ee30155565b611171565b816001600160a01b0316836001600160a01b031614611171576111718382611413565b6001600160a01b038216611188576104ce816114b0565b826001600160a01b0316826001600160a01b0316146104ce576104ce8282611589565b6060816111cf5750506040805180820190915260018152600360fc1b602082015290565b8160005b81156111f957806111e381611aff565b91506111f29050600a83611a6d565b91506111d3565b60008167ffffffffffffffff81111561122257634e487b7160e01b600052604160045260246000fd5b6040519080825280601f01601f19166020018201604052801561124c576020820181803683370190505b5090505b84156109ca57611261600183611a81565b915061126e600a86611b1a565b611279906030611a55565b60f81b81838151811061129c57634e487b7160e01b600052603260045260246000fd5b60200101906001600160f81b031916908160001a9053506112be600a86611a6d565b9450611250565b6001600160a01b03821661131b5760405162461bcd60e51b815260206004820181905260248201527f4552433732313a206d696e7420746f20746865207a65726f2061646472657373604482015260640161042d565b6000818152600260205260409020546001600160a01b0316156113805760405162461bcd60e51b815260206004820152601c60248201527f4552433732313a20746f6b656e20616c7265616479206d696e74656400000000604482015260640161042d565b61138c60008383610f34565b6001600160a01b03821660009081526003602052604081208054600192906113b5908490611a55565b909155505060008181526002602052604080822080546001600160a01b0319166001600160a01b03861690811790915590518392907fddf252ad1be2c89b69c2b068fc378daa952ba7f163c4a11628f55a4df523b3ef908290a45050565b60006001611420846106b6565b61142a9190611a81565b60008381526007602052604090205490915080821461147d576001600160a01b03841660009081526006602090815260408083208584528252808320548484528184208190558352600790915290208190555b5060009182526007602090815260408084208490556001600160a01b039094168352600681528383209183525290812055565b6008546000906114c290600190611a81565b600083815260096020526040812054600880549394509092849081106114f857634e487b7160e01b600052603260045260246000fd5b90600052602060002001549050806008838154811061152757634e487b7160e01b600052603260045260246000fd5b600091825260208083209091019290925582815260099091526040808220849055858252812055600880548061156d57634e487b7160e01b600052603160045260246000fd5b6001900381819060005260206000200160009055905550505050565b6000611594836106b6565b6001600160a01b039093166000908152600660209081526040808320868452825280832085905593825260079052919091209190915550565b8280546115d990611ac4565b90600052602060002090601f0160209004810192826115fb5760008555611641565b82601f1061161457805160ff1916838001178555611641565b82800160010185558215611641579182015b82811115611641578251825591602001919060010190611626565b5061164d929150611651565b5090565b5b8082111561164d5760008155600101611652565b600067ffffffffffffffff8084111561168157611681611b5a565b604051601f8501601f19908116603f011681019082821181831017156116a9576116a9611b5a565b816040528093508581528686860111156116c257600080fd5b858560208301376000602087830101525050509392505050565b80356001600160a01b03811681146116f357600080fd5b919050565b600060208284031215611709578081fd5b6110b9826116dc565b60008060408385031215611724578081fd5b61172d836116dc565b915061173b602084016116dc565b90509250929050565b600080600060608486031215611758578081fd5b611761846116dc565b925061176f602085016116dc565b9150604084013590509250925092565b60008060008060808587031215611794578081fd5b61179d856116dc565b93506117ab602086016116dc565b925060408501359150606085013567ffffffffffffffff8111156117cd578182fd5b8501601f810187136117dd578182fd5b6117ec87823560208401611666565b91505092959194509250565b6000806040838503121561180a578182fd5b611813836116dc565b915060208301358015158114611827578182fd5b809150509250929050565b60008060408385031215611844578182fd5b61184d836116dc565b9150602083013567ffffffffffffffff811115611868578182fd5b8301601f81018513611878578182fd5b61188785823560208401611666565b9150509250929050565b600080604083850312156118a3578182fd5b6118ac836116dc565b946020939093013593505050565b6000602082840312156118cb578081fd5b81356110b981611b70565b6000602082840312156118e7578081fd5b81516110b981611b70565b600060208284031215611903578081fd5b5035919050565b60008151808452611922816020860160208601611a98565b601f01601f19169290920160200192915050565b60008351611948818460208801611a98565b83519083019061195c818360208801611a98565b01949350505050565b6001600160a01b03858116825284166020820152604081018390526080606082018190526000906119989083018461190a565b9695505050505050565b6020815260006110b9602083018461190a565b60208082526032908201527f4552433732313a207472616e7366657220746f206e6f6e20455243373231526560408201527131b2b4bb32b91034b6b83632b6b2b73a32b960711b606082015260800190565b6020808252602e908201527f4552433732313a2063616c6c6572206973206e6f7420746f6b656e206f776e6560408201526d1c881b9bdc88185c1c1c9bdd995960921b606082015260800190565b60008219821115611a6857611a68611b2e565b500190565b600082611a7c57611a7c611b44565b500490565b600082821015611a9357611a93611b2e565b500390565b60005b83811015611ab3578181015183820152602001611a9b565b838111156107a05750506000910152565b600181811c90821680611ad857607f821691505b60208210811415611af957634e487b7160e01b600052602260045260246000fd5b50919050565b6000600019821415611b1357611b13611b2e565b5060010190565b600082611b2957611b29611b44565b500690565b634e487b7160e01b600052601160045260246000fd5b634e487b7160e01b600052601260045260246000fd5b634e487b7160e01b600052604160045260246000fd5b6001600160e01b03198116811461085e57600080fdfea26469706673582212200809b922520a1db0ea6e7295838678d20dbcd72e6029df2676bedcde9857a33764736f6c63430008040033",
  "linkReferences": {},
  "deployedLinkReferences": {}
}